{
  "contracts/Counter.sol": {
    "Counter": {
      "abi": [
        {
          "inputs": [],
          "stateMutability": "nonpayable",
          "type": "constructor"
        },
        {
          "anonymous": false,
          "inputs": [
            {
              "indexed": false,
              "internalType": "uint256",
              "name": "newCount",
              "type": "uint256"
            },
            {
              "indexed": false,
              "internalType": "address",
              "name": "changedBy",
              "type": "address"
            }
          ],
          "name": "CountChanged",
          "type": "event"
        },
        {
          "inputs": [],
          "name": "count",
          "outputs": [
            {
              "internalType": "uint256",
              "name": "",
              "type": "uint256"
            }
          ],
          "stateMutability": "view",
          "type": "function"
        },
        {
          "inputs": [],
          "name": "decrement",
          "outputs": [],
          "stateMutability": "nonpayable",
          "type": "function"
        },
        {
          "inputs": [],
          "name": "getCount",
          "outputs": [
            {
              "internalType": "uint256",
              "name": "",
              "type": "uint256"
            }
          ],
          "stateMutability": "view",
          "type": "function"
        },
        {
          "inputs": [],
          "name": "increment",
          "outputs": [],
          "stateMutability": "nonpayable",
          "type": "function"
        },
        {
          "inputs": [],
          "name": "owner",
          "outputs": [
            {
              "internalType": "address",
              "name": "",
              "type": "address"
            }
          ],
          "stateMutability": "view",
          "type": "function"
        },
        {
          "inputs": [],
          "name": "reset",
          "outputs": [],
          "stateMutability": "nonpayable",
          "type": "function"
        }
      ],
      "evm": {
        "bytecode": {
          "linkReferences": {},
          "object": "6080604052348015600f57600080fd5b5033600160006101000a81548173ffffffffffffffffffffffffffffffffffffffff021916908373ffffffffffffffffffffffffffffffffffffffff1602179055506000808190555061054c806100676000396000f3fe608060405234801561001057600080fd5b50600436106100625760003560e01c806306661abd146100675780632baeceb7146100855780638da5cb5b1461008f578063a87d942c146100ad578063d09de08a146100cb578063d826f88f146100d5575b600080fd5b61006f6100df565b60405161007c91906102ed565b60405180910390f35b61008d6100e5565b005b61009761017d565b6040516100a49190610349565b60405180910390f35b6100b56101a3565b6040516100c291906102ed565b60405180910390f35b6100d36101ac565b005b6100dd610200565b005b60005481565b6000805411610129576040517f08c379a0000000000000000000000000000000000000000000000000000000008152600401610120906103c1565b60405180910390fd5b60008081548092919061013b90610410565b91905055507fb0be3ede0b8207b0d3c8899f9b86dc42673423e1532e9aa4e0c4c03580cb7a8260005433604051610173929190610439565b60405180910390a1565b600160009054906101000a900473ffffffffffffffffffffffffffffffffffffffff1681565b60008054905090565b6000808154809291906101be90610462565b91905055507fb0be3ede0b8207b0d3c8899f9b86dc42673423e1532e9aa4e0c4c03580cb7a82600054336040516101f6929190610439565b60405180910390a1565b600160009054906101000a900473ffffffffffffffffffffffffffffffffffffffff1673ffffffffffffffffffffffffffffffffffffffff163373ffffffffffffffffffffffffffffffffffffffff1614610290576040517f08c379a0000000000000000000000000000000000000000000000000000000008152600401610287906104f6565b60405180910390fd5b600080819055507fb0be3ede0b8207b0d3c8899f9b86dc42673423e1532e9aa4e0c4c03580cb7a82600054336040516102ca929190610439565b60405180910390a1565b6000819050919050565b6102e7816102d4565b82525050565b600060208201905061030260008301846102de565b92915050565b600073ffffffffffffffffffffffffffffffffffffffff82169050919050565b600061033382610308565b9050919050565b61034381610328565b82525050565b600060208201905061035e600083018461033a565b92915050565b600082825260208201905092915050565b7f436f756e742063616e6e6f7420676f2062656c6f77207a65726f000000000000600082015250565b60006103ab601a83610364565b91506103b682610375565b602082019050919050565b600060208201905081810360008301526103da8161039e565b9050919050565b7f4e487b7100000000000000000000000000000000000000000000000000000000600052601160045260246000fd5b600061041b826102d4565b91506000820361042e5761042d6103e1565b5b600182039050919050565b600060408201905061044e60008301856102de565b61045b602083018461033a565b9392505050565b600061046d826102d4565b91507fffffffffffffffffffffffffffffffffffffffffffffffffffffffffffffffff820361049f5761049e6103e1565b5b600182019050919050565b7f4f6e6c79206f776e65722063616e207265736574000000000000000000000000600082015250565b60006104e0601483610364565b91506104eb826104aa565b602082019050919050565b6000602082019050818103600083015261050f816104d3565b905091905056fea2646970667358221220c0caa7fd28ce1ae3d2dd6ddb4d1667d6a86353535acb2298bab8f70b38237f1864736f6c634300081a0033",
          "opcodes": "PUSH1 0x80 PUSH1 0x40 MSTORE CALLVALUE DUP1 ISZERO PUSH1 0xF JUMPI PUSH1 0x0 DUP1 REVERT JUMPDEST POP CALLER PUSH1 0x1 PUSH1 0x0 PUSH2 0x100 EXP DUP2 SLOAD DUP2 PUSH20 0xFFFFFFFFFFFFFFFFFFFFFFFFFFFFFFFFFFFFFFFF MUL NOT AND SWAP1 DUP4 PUSH20 0xFFFFFFFFFFFFFFFFFFFFFFFFFFFFFFFFFFFFFFFF AND MUL OR SWAP1 SSTORE POP PUSH1 0x0 DUP1 DUP2 SWAP1 SSTORE POP PUSH2 0x54C DUP1 PUSH2 0x67 PUSH1 0x0 CODECOPY PUSH1 0x0 RETURN INVALID PUSH1 0x80 PUSH1 0x40 MSTORE CALLVALUE DUP1 ISZERO PUSH2 0x10 JUMPI PUSH1 0x0 DUP1 REVERT JUMPDEST POP PUSH1 0x4 CALLDATASIZE LT PUSH2 0x62 JUMPI PUSH1 0x0 CALLDATALOAD PUSH1 0xE0 SHR DUP1 PUSH4 0x6661ABD EQ PUSH2 0x67 JUMPI DUP1 PUSH4 0x2BAECEB7 EQ PUSH2 0x85 JUMPI DUP1 PUSH4 0x8DA5CB5B EQ PUSH2 0x8F JUMPI DUP1 PUSH4 0xA87D942C EQ PUSH2 0xAD JUMPI DUP1 PUSH4 0xD09DE08A EQ PUSH2 0xCB JUMPI DUP1 PUSH4 0xD826F88F EQ PUSH2 0xD5 JUMPI JUMPDEST PUSH1 0x0 DUP1 REVERT JUMPDEST PUSH2 0x6F PUSH2 0xDF JUMP JUMPDEST PUSH1 0x40 MLOAD PUSH2 0x7C SWAP2 SWAP1 PUSH2 0x2ED JUMP JUMPDEST PUSH1 0x40 MLOAD DUP1 SWAP2 SUB SWAP1 RETURN JUMPDEST PUSH2 0x8D PUSH2 0xE5 JUMP JUMPDEST STOP JUMPDEST PUSH2 0x97 PUSH2 0x17D JUMP JUMPDEST PUSH1 0x40 MLOAD PUSH2 0xA4 SWAP2 SWAP1 PUSH2 0x349 JUMP JUMPDEST PUSH1 0x40 MLOAD DUP1 SWAP2 SUB SWAP1 RETURN JUMPDEST PUSH2 0xB5 PUSH2 0x1A3 JUMP JUMPDEST PUSH1 0x40 MLOAD PUSH2 0xC2 SWAP2 SWAP1 PUSH2 0x2ED JUMP JUMPDEST PUSH1 0x40 MLOAD DUP1 SWAP2 SUB SWAP1 RETURN JUMPDEST PUSH2 0xD3 PUSH2 0x1AC JUMP JUMPDEST STOP JUMPDEST PUSH2 0xDD PUSH2 0x200 JUMP JUMPDEST STOP JUMPDEST PUSH1 0x0 SLOAD DUP2 JUMP JUMPDEST PUSH1 0x0 DUP1 SLOAD GT PUSH2 0x129 JUMPI PUSH1 0x40 MLOAD PUSH32 0x8C379A000000000000000000000000000000000000000000000000000000000 DUP2 MSTORE PUSH1 0x4 ADD PUSH2 0x120 SWAP1 PUSH2 0x3C1 JUMP JUMPDEST PUSH1 0x40 MLOAD DUP1 SWAP2 SUB SWAP1 REVERT JUMPDEST PUSH1 0x0 DUP1 DUP2 SLOAD DUP1 SWAP3 SWAP2 SWAP1 PUSH2 0x13B SWAP1 PUSH2 0x410 JUMP JUMPDEST SWAP2 SWAP1 POP SSTORE POP PUSH32 0xB0BE3EDE0B8207B0D3C8899F9B86DC42673423E1532E9AA4E0C4C03580CB7A82 PUSH1 0x0 SLOAD CALLER PUSH1 0x40 MLOAD PUSH2 0x173 SWAP3 SWAP2 SWAP1 PUSH2 0x439 JUMP JUMPDEST PUSH1 0x40 MLOAD DUP1 SWAP2 SUB SWAP1 LOG1 JUMP JUMPDEST PUSH1 0x1 PUSH1 0x0 SWAP1 SLOAD SWAP1 PUSH2 0x100 EXP SWAP1 DIV PUSH20 0xFFFFFFFFFFFFFFFFFFFFFFFFFFFFFFFFFFFFFFFF AND DUP2 JUMP JUMPDEST PUSH1 0x0 DUP1 SLOAD SWAP1 POP SWAP1 JUMP JUMPDEST PUSH1 0x0 DUP1 DUP2 SLOAD DUP1 SWAP3 SWAP2 SWAP1 PUSH2 0x1BE SWAP1 PUSH2 0x462 JUMP JUMPDEST SWAP2 SWAP1 POP SSTORE POP PUSH32 0xB0BE3EDE0B8207B0D3C8899F9B86DC42673423E1532E9AA4E0C4C03580CB7A82 PUSH1 0x0 SLOAD CALLER PUSH1 0x40 MLOAD PUSH2 0x1F6 SWAP3 SWAP2 SWAP1 PUSH2 0x439 JUMP JUMPDEST PUSH1 0x40 MLOAD DUP1 SWAP2 SUB SWAP1 LOG1 JUMP JUMPDEST PUSH1 0x1 PUSH1 0x0 SWAP1 SLOAD SWAP1 PUSH2 0x100 EXP SWAP1 DIV PUSH20 0xFFFFFFFFFFFFFFFFFFFFFFFFFFFFFFFFFFFFFFFF AND PUSH20 0xFFFFFFFFFFFFFFFFFFFFFFFFFFFFFFFFFFFFFFFF AND CALLER PUSH20 0xFFFFFFFFFFFFFFFFFFFFFFFFFFFFFFFFFFFFFFFF AND EQ PUSH2 0x290 JUMPI PUSH1 0x40 MLOAD PUSH32 0x8C379A000000000000000000000000000000000000000000000000000000000 DUP2 MSTORE PUSH1 0x4 ADD PUSH2 0x287 SWAP1 PUSH2 0x4F6 JUMP JUMPDEST PUSH1 0x40 MLOAD DUP1 SWAP2 SUB SWAP1 REVERT JUMPDEST PUSH1 0x0 DUP1 DUP2 SWAP1 SSTORE POP PUSH32 0xB0BE3EDE0B8207B0D3C8899F9B86DC42673423E1532E9AA4E0C4C03580CB7A82 PUSH1 0x0 SLOAD CALLER PUSH1 0x40 MLOAD PUSH2 0x2CA SWAP3 SWAP2 SWAP1 PUSH2 0x439 JUMP JUMPDEST PUSH1 0x40 MLOAD DUP1 SWAP2 SUB SWAP1 LOG1 JUMP JUMPDEST PUSH1 0x0 DUP2 SWAP1 POP SWAP2 SWAP1 POP JUMP JUMPDEST PUSH2 0x2E7 DUP2 PUSH2 0x2D4 JUMP JUMPDEST DUP3 MSTORE POP POP JUMP JUMPDEST PUSH1 0x0 PUSH1 0x20 DUP3 ADD SWAP1 POP PUSH2 0x302 PUSH1 0x0 DUP4 ADD DUP5 PUSH2 0x2DE JUMP JUMPDEST SWAP3 SWAP2 POP POP JUMP JUMPDEST PUSH1 0x0 PUSH20 0xFFFFFFFFFFFFFFFFFFFFFFFFFFFFFFFFFFFFFFFF DUP3 AND SWAP1 POP SWAP2 SWAP1 POP JUMP JUMPDEST PUSH1 0x0 PUSH2 0x333 DUP3 PUSH2 0x308 JUMP JUMPDEST SWAP1 POP SWAP2 SWAP1 POP JUMP JUMPDEST PUSH2 0x343 DUP2 PUSH2 0x328 JUMP JUMPDEST DUP3 MSTORE POP POP JUMP JUMPDEST PUSH1 0x0 PUSH1 0x20 DUP3 ADD SWAP1 POP PUSH2 0x35E PUSH1 0x0 DUP4 ADD DUP5 PUSH2 0x33A JUMP JUMPDEST SWAP3 SWAP2 POP POP JUMP JUMPDEST PUSH1 0x0 DUP3 DUP3 MSTORE PUSH1 0x20 DUP3 ADD SWAP1 POP SWAP3 SWAP2 POP POP JUMP JUMPDEST PUSH32 0x436F756E742063616E6E6F7420676F2062656C6F77207A65726F000000000000 PUSH1 0x0 DUP3 ADD MSTORE POP JUMP JUMPDEST PUSH1 0x0 PUSH2 0x3AB PUSH1 0x1A DUP4 PUSH2 0x364 JUMP JUMPDEST SWAP2 POP PUSH2 0x3B6 DUP3 PUSH2 0x375 JUMP JUMPDEST PUSH1 0x20 DUP3 ADD SWAP1 POP SWAP2 SWAP1 POP JUMP JUMPDEST PUSH1 0x0 PUSH1 0x20 DUP3 ADD SWAP1 POP DUP2 DUP2 SUB PUSH1 0x0 DUP4 ADD MSTORE PUSH2 0x3DA DUP2 PUSH2 0x39E JUMP JUMPDEST SWAP1 POP SWAP2 SWAP1 POP JUMP JUMPDEST PUSH32 0x4E487B7100000000000000000000000000000000000000000000000000000000 PUSH1 0x0 MSTORE PUSH1 0x11 PUSH1 0x4 MSTORE PUSH1 0x24 PUSH1 0x0 REVERT JUMPDEST PUSH1 0x0 PUSH2 0x41B DUP3 PUSH2 0x2D4 JUMP JUMPDEST SWAP2 POP PUSH1 0x0 DUP3 SUB PUSH2 0x42E JUMPI PUSH2 0x42D PUSH2 0x3E1 JUMP JUMPDEST JUMPDEST PUSH1 0x1 DUP3 SUB SWAP1 POP SWAP2 SWAP1 POP JUMP JUMPDEST PUSH1 0x0 PUSH1 0x40 DUP3 ADD SWAP1 POP PUSH2 0x44E PUSH1 0x0 DUP4 ADD DUP6 PUSH2 0x2DE JUMP JUMPDEST PUSH2 0x45B PUSH1 0x20 DUP4 ADD DUP5 PUSH2 0x33A JUMP JUMPDEST SWAP4 SWAP3 POP POP POP JUMP JUMPDEST PUSH1 0x0 PUSH2 0x46D DUP3 PUSH2 0x2D4 JUMP JUMPDEST SWAP2 POP PUSH32 0xFFFFFFFFFFFFFFFFFFFFFFFFFFFFFFFFFFFFFFFFFFFFFFFFFFFFFFFFFFFFFFFF DUP3 SUB PUSH2 0x49F JUMPI PUSH2 0x49E PUSH2 0x3E1 JUMP JUMPDEST JUMPDEST PUSH1 0x1 DUP3 ADD SWAP1 POP SWAP2 SWAP1 POP JUMP JUMPDEST PUSH32 0x4F6E6C79206F776E65722063616E207265736574000000000000000000000000 PUSH1 0x0 DUP3 ADD MSTORE POP JUMP JUMPDEST PUSH1 0x0 PUSH2 0x4E0 PUSH1 0x14 DUP4 PUSH2 0x364 JUMP JUMPDEST SWAP2 POP PUSH2 0x4EB DUP3 PUSH2 0x4AA JUMP JUMPDEST PUSH1 0x20 DUP3 ADD SWAP1 POP SWAP2 SWAP1 POP JUMP JUMPDEST PUSH1 0x0 PUSH1 0x20 DUP3 ADD SWAP1 POP DUP2 DUP2 SUB PUSH1 0x0 DUP4 ADD MSTORE PUSH2 0x50F DUP2 PUSH2 0x4D3 JUMP JUMPDEST SWAP1 POP SWAP2 SWAP1 POP JUMP INVALID LOG2 PUSH5 0x6970667358 0x22 SLT KECCAK256 0xC0 0xCA 0xA7 REVERT 0x28 0xCE BYTE 0xE3 0xD2 0xDD PUSH14 0xDB4D1667D6A86353535ACB2298BA 0xB8 0xF7 SIGNEXTEND CODESIZE 0x23 PUSH32 0x1864736F6C634300081A00330000000000000000000000000000000000000000 "
        },
        "methodIdentifiers": {
          "count()": "06661abd",
          "decrement()": "2baeceb7",
          "getCount()": "a87d942c",
          "increment()": "d09de08a",
          "owner()": "8da5cb5b",
          "reset()": "d826f88f"
        }
      }
    }
  }
}